:020000040800F2
:10000000380B00200D020008C9030008C1030008D6
:10001000C5030008B9030008A90400080000000097
:10002000000000000000000000000000DD030008E8
:10003000BD03000800000000D9030008E103000828
:1000400027020008270200082702000827020008EC
:1000500027020008270200082702000827020008DC
:1000600027020008270200082702000827020008CC
:1000700027020008270200082702000827020008BC
:1000800027020008270200082702000827020008AC
:10009000270200082702000827020008270200089C
:1000A0002702000861040008270200082702000850
:1000B000270200082702000827020008270200087C
:1000C000270200082702000827020008270200086C
:1000D000270200082702000827020008270200085C
:1000E000270200082702000827020008000000007D
:1000F0000000000000000000000000000000000000
:10010000000000002702000827020008000000008D
:10011000270200082702000800000000000000007D
:10012000270200082702000827020008270200080B
:1001300000000000000000000000000000000000BF
:10014000000000000000000000000000CD030008D7
:10015000000000000000000027020008270200083D
:10016000000000000000000000000000270200085E
:1001700000F002F800F03AF80AA090E8000C82447F
:100180008344AAF10107DA4501D100F02FF8AFF25C
:10019000090EBAE80F0013F0010F18BFFB1A43F065
:1001A000010318473C2400005C240000103A24BFDF
:1001B00078C878C1FAD8520724BF30C830C144BFCC
:1001C00004680C607047000000230024002500260E
:1001D000103A28BF78C1FBD8520728BF30C148BFAA
:1001E0000B6070471FB51FBD10B510BD00F0A9F81A
:1001F0001146FFF7F7FF00F00BFD00F0C7F803B45E
:10020000FFF7F2FF03BC00F0CFF800000948804779
:1002100009480047FEE7FEE7FEE7FEE7FEE7FEE7E8
:10022000FEE7FEE7FEE7FEE704480549054A064B00
:1002300070470000E5030008710100083805002040
:10024000380B0020380700203807002053EA020C42
:1002500000F069802DE9F04B4FF00006002B1FBF26
:10026000B3FA83F503FA05F424FA05F65E4012BFEB
:100270001643B2FA82F502FA05F4C5F120051EBF55
:1002800022FA05FC44EA0C04203556EA044C4FEAF5
:10029000144418BF641C4FF000084FF0000990424E
:1002A00071EB030C39D3002919BFB1FA81F701FAB8
:1002B00007F6B0FA80F700FA07F6C7F120071EBF6D
:1002C00020FA07FC46EA0C062037B6FBF4FCA7EB45
:1002D0000507103F07F01F0BCBF120062CFA06F69E
:1002E0000CFA0BFB44BFB3460026202FA4BF5E468A
:1002F0004FF0000B5BEA060C08BF4FF0010B19EB47
:100300000B0948EB0608ABFB027C06FB02CC0BFB9F
:1003100003CCC01B71EB0C01C1E70B460246414602
:100320004846BDE8F08B13B5084318BF4FF0FF30C7
:100330000146AFF30080BDE81C407047704770472E
:100340007047754600F02CF8AE46050069465346E6
:1003500020F00700854618B020B5FFF765FFBDE81F
:1003600020404FF000064FF000074FF000084FF01C
:10037000000BAC46ACE8C009ACE8C009ACE8C00969
:10038000ACE8C00921F007018D46704710B504465E
:10039000AFF300802046BDE81040FFF730BF0000FB
:1003A000004870470801002001491820ABBEFEE755
:1003B0002600020070470000FEE7000070470000C2
:1003C000FEE70000FEE700007047000040F28430C6
:1003D000C2F2000001F01ABF704700007047000031
:1003E0007047000041F20000C4F20200C16941F010
:1003F0008051C16147F25001C4F200010A7842F015
:1004000004020A70C16921F08051C161016841F0A4
:100410000101016001688907FCD5416821F00301F1
:10042000416000BF416811F00C0FFBD101684FF62D
:10043000FF72CFF6F262114001600021416041F687
:100440001071C1624FF4801101634FF41F0181608C
:100450004EF60850CEF200004FF000610160704788
:1004600010B542F60044C4F201042046012100F018
:1004700075FD012818BF10BD40F28030C2F20000A7
:1004800001780A2908D30021017000F00DF92046F7
:10049000002100F059FD01E00131017020460121E9
:1004A000BDE8104000F056BDFEE7000010B582B078
:1004B000042000F02BFD40F20010C2F200000068A2
:1004C0004DF68361C4F21B31A0FB0101880C40F2A0
:1004D0007C21C2F20001086008684FF47A71484339
:1004E00040F27821C2F2000108600220C0F2180038
:1004F000012100F075F96C46204600F01FFB40F228
:100500000040C0F2101001900820009040F600005A
:10051000C4F20100214600F01BFB02B010BD000038
:1005200010B58121044601F079FC2046012101F03B
:1005300075FC002010BD000070B504464068002125
:10054000456A2046002601F0A7FD95F80C110929FF
:1005500007D105F18C0182B2204600F03DFF85F8FD
:100560000C61002070BD0000002070470020704723
:1005700000207047B0B5044640688121456A204696
:100580000322402301F05AFC20460121032240238C
:1005900001F054FC204601212A46402301F070FC62
:1005A0000020B0BD70B504464068456A204601F0A1
:1005B00073FD86B220462946324600F00DFF2046E4
:1005C00001212A46334601F05BFC002070BD00008B
:1005D00080B542680B78D2F824C013F0600211D0C5
:1005E000202A2BD14A78013A0A2A27D8DFE802F0DC
:1005F00006323526262626263C464B00CA880CF1B4
:10060000CC012DE04A78013A0A2A17D8DFE802F037
:100610000616061616081616161A1D00002080BDAE
:10062000CA78212A34D0222A08D1CA8840F2B801D7
:10063000222A28BF2222C2F2000111E001F012FAA0
:10064000002080BD0CF1880109E04888CCF88800C2
:10065000002080BD0CF1840101E00CF18001012239
:1006600001F0EAF9002080BD09228CF80C21CA882B
:100670000CF18C0101F09EF9002080BDC878CCF807
:100680008400002080BD8878CCF88000002080BDE8
:10069000CA8840F26001092A28BF0922C2F200017B
:1006A000DEE700000020704740F60000C4F20100C1
:1006B000082100F041BA000041F20401C4F2020135
:1006C0000A6800F00F0022F0F00242EA0010086011
:1006D0007047000041F20401C4F202010A6800F010
:1006E000070022F4E06242EA002008607047000040
:1006F00041F20401C4F202010A6800F0070022F48A
:10070000605242EAC02008607047000041F2540184
:10071000C4F202010A68012822F0300208BF303218
:100720000A607047042888BF7047DFE800F0030CB8
:1007300019262F0041F20000C4F20200026861F3A2
:1007400000020260704741F20000C4F20200026839
:1007500001F0010122F4803242EA01410160704758
:1007600041F20000C4F20200026801F0010122F02F
:10077000807242EA01610160704741F20000C4F2F8
:100780000200026A61F300020262704741F2000057
:10079000C4F20200426A61F3000242627047000044
:1007A00041F20002010CC4F20202895800F01F005D
:1007B00021FA00F000F001007047000041F2000152
:1007C0000020C4F2020100BF0A68920304D4B0F50D
:1007D000405F00F10100F7D30868C0F34040704764
:1007E00041F2000200F01F034FF0010CC4F20202BC
:1007F00001290CFA03F14FEA1040835814BF23EA91
:10080000010119438150704710B541F20404C4F24C
:100810000204236878B143F48033236023680128FD
:1008200016D123F4003323604FF040734FF0000ED5
:100830004FF0807C14E023F480332360E36A4FF0B0
:10084000010E43F00073E3624FF0000C002307E059
:1008500043F40033236000234FF0010E4FF0807CFF
:10086000BEF1000F18BF63462268002861F395426D
:10087000226020684FEA111161F35E702060A06A67
:1008800008BF634620F0E0601843A06210BD00007E
:1008900041F20000C4F20200016841F00101016070
:1008A00001688907FCD5416821F00301416000BF60
:1008B000416811F00C0FFBD101684FF6FF72CFF6C3
:1008C000F262114001600021416041F61071C16285
:1008D0004FF4801101634FF41F01816070470000E5
:1008E00041F20401C4F202010A6860F301020A60E5
:1008F00000BF00BF00BF00BF00BF00BF00BF00BF00
:1009000000BF00BF00BF00BF00BF00BF00BF00BFEF
:1009100000BF00BF00BF00BF7047000041F20400ED
:10092000C4F202000068C0F38100704741F2040184
:10093000C4F202010A6860F397520A600A688008EC
:1009400060F3DB620A60704780B542F2D250C0F6B5
:10095000000040F2802C013850236FF00102C2F2F7
:10096000000C4FF0000E00BF0CEB02010B718378FE
:100970000232142A00F1010081F805E0F4D14FF4AD
:100980004670ACF8000040F23050C2F2000018216E
:100990000180C0F804C080BD40F20000C2F2000037
:1009A0007047000040F25800C2F20000704700009B
:1009B00080B542F2C350C0F6000040F2802C0138EE
:1009C00050236FF00102C2F2000C4FF0000E00BF86
:1009D0000CEB02010B71837802321A2A00F101003C
:1009E00081F805E0F4D140F21E30ACF8000040F28E
:1009F0003050C2F200001E210180C0F804C080BD4A
:100A000040F2F000C2F200007047000080B542F2F0
:100A1000B650C0F6000040F2802C013859236FF028
:100A20000102C2F2000C4FF0000E00BF0CEB0201FD
:100A30000B7183780232062A00F1010081F805E08B
:100A4000F4D140F20A30ACF8000040F23050C2F26B
:100A500000000A210180C0F804C080BD002070475A
:100A600080B542F2BB50C0F6000040F2802C013845
:100A700050236FF00102C2F2000C4FF0000E00BFD5
:100A80000CEB02010B71837802320C2A00F1010099
:100A900081F805E0F4D14FF44470ACF8000040F266
:100AA0003050C2F2000010210180C0F804C080BDA7
:100AB0000020704770B54FF2E870C1F6FF70016812
:100AC0008268891831D0406840F2700C6FF00102E2
:100AD000C2F2000C4FF0370E002300BF0CEB0205F2
:100AE0000EEB1176B1F1204F02F102024FEA1174C0
:100AF00038BF04F1300609010E2A2E716B71EDD159
:100B00000CF1100104224FF0370C00230CEB107590
:100B1000B0F1204F4FEA107638BF06F1300501F8EA
:100B2000025F0001013A4B70F0D140F2F800C2F2CE
:100B3000000070BD416170470161704740F20042A2
:100B40004FF6FF71C0F20012C0E9001270470000BA
:100B5000B0B58B790A88032B0BD07BB9497928294A
:100B600001F00F0E18D0182908BF0261110616D126
:100B70002EE04FF0000E110611D129E003F0080C11
:100B80000B79C97903F00403634401F0030103EB1B
:100B9000010E110603D11BE04261110618D000239B
:100BA0004FF00F0C002104E00131082903F1040388
:100BB0000ED022FA01F4E407F6D004680CFA03F52B
:100BC000AC43046004680EFA03F52C430460EBE7C1
:100BD000B2F5807F38BFB0BD120A00234FF00F0C72
:100BE000002104E00131082903F104030ED022FAA8
:100BF00001F4E407F6D044680CFA03F5AC43446012
:100C000044680EFA03F52C434460EBE7B0BD0000E6
:100C100084B000F0B7F8032000F09CF8FFF746FC22
:100C20000220C0F2180001210124FFF7D9FD02A81B
:100C3000FFF784FF00F0A6F90C20C0F21400012198
:100C4000FFF7CEFD40F20010C2F2000000684DF246
:100C5000FF71C0F2B851884213DD4DF60001C0F2B9
:100C6000B85188421BD040F60061C0F2277188421B
:100C700017D044F20041C0F69501884215D10524F1
:100C800010E046F60041C0F2DC2188420AD04AF268
:100C90000021C0F24A41884207D1002402E0032427
:100CA00000E002242046FFF741FE432000210022FD
:100CB00000F016F840F2300440F2843040F20803AD
:100CC000C2F20004C2F20000C2F2000301210022BD
:100CD000009401F047FAFFF7E7FC00BFFEE70000D1
:100CE000B0B54EF60C5ECEF2000EDEF800304FF0DE
:100CF000FF35C3F3022383F00704042C28BF042428
:100D0000033B05FA04F438BF0023A143994005FAD8
:100D100003F39A4300F00F03043B4EF2001C7344AC
:100D2000CEF2000C11430C33B0F1FF3F4FEA01113A
:100D300000EB0C02C8BF02F540730028197048BFD1
:100D4000B0BD00F01F01012202FA01F140094CF888
:100D50002010B0BD4EF60C51CEF200010A684FF6DD
:100D6000FF031A4060F30A2242F0806040F0FD70F9
:100D70000860704740F60000C4F201000821FFF748
:100D8000D9BE000080B5FFF783FD42F20000C4F237
:100D900002001421016001200121FFF7C3FC00BF04
:100DA000FFF70CFD0028FBD002201721FFF72CFDD8
:100DB00002200121FFF7B6FC1920FFF7F1FC012802
:100DC000FAD10020FFF778FC0420FFF791FC042003
:100DD000FFF780FC0120FFF799FC0220FFF780FD60
:100DE000FFF79CFD0228FBD10020FFF78FFCBDE838
:100DF000804000F001B80000B0B541F2040541F6B2
:100E00000034C4F20205C0F2B704FFF787FD0228E0
:100E10000ED0012863D060BB286D800544BFE86A0E
:100E20005FEA801040D441F20024C0F27A0456E018
:100E30002868A96AC0F3004C00291FD429682A68D1
:100E4000C1F38341C2F341721301581C0F290346B9
:100E500018BF0223002A18BF0346BCF1000F03EBA2
:100E600001001CD140F60011C0F23D0100FB01F46D
:100E700035E041F20024C0F27A0430E0A86AA96AA1
:100E8000C0F30312A86AC1F30821BCF1000F00F0FF
:100E900007030ED140F60010C0F23D0011E02968B2
:100EA000890316D444431AE046F60044C0F2DC2419
:100EB00015E02868800348F68050C0F25B0058BFF8
:100EC0002046A0FB01019A400023FFF7BFF904462A
:100ED00005E048F68051C0F25B0100FB01F440F2EE
:100EE0000010C2F200000460296804A2C1F30311DB
:100EF000515C026822FA01F10160B0BD00000000FF
:100F00000000000001020304060708094EF2100168
:100F1000CEF200010A68042822F0040208BF04325D
:100F20000A607047C1628262416941F0010141611A
:100F300070470000026801F0070122F0700242EAE7
:100F40000111016070470000026861F30002026055
:100F500070470000C9430161704700000069084004
:100F600018BF01207047000032B1012A18BF704736
:100F7000C2681143C1607047C26822EA0101C160C2
:100F800070470000B0B50B20C0F218000121FFF738
:100F900027FC1920002100220025FFF7A1FE42F6C0
:100FA0000044C4F20104204642F20F7143F63F02AE
:100FB000FFF7B8FF20460121FFF7CCFF20460021B4
:100FC000FFF7B8FF204601210122FFF7CDFF2046A1
:100FD0000021FFF7B9FF40F28030C2F20000057037
:100FE000B0BD0000B0B542F60044C4F20104204692
:100FF0000121FFF7AFFF204600210025FFF7A4FFE6
:1010000040F28032C2F20002204601211570BDE894
:10101000B040FFF799BF000010B542F60040C4F29F
:10102000010000210024FFF78FFF40F28030C2F260
:101030000000047010BD0000D0F8041821F0020177
:10104000C0F8041870470000D0F8041841F00201FD
:10105000C0F8041870470000D0F8001940F2FF7281
:101060009143C0F80019D0F8041821F48071C0F839
:10107000041870470021C0F8101BD0F8101B012283
:1010800062F3DC41C0F8101BD0F8101B182262F389
:101090001201C0F8101BD0F8101B41F0C041C0F87D
:1010A000101B70478A780B78002A4FEA431214BF4E
:1010B00000F5306000F51060135823F4001313504E
:1010C000CA7802F0FE02022A18BF70470978490167
:1010D000425842F0805242507047000080B58B78F1
:1010E00091F800C04FF48032D0F81CE8002B08BF04
:1010F000012202FA0CF24FF430632EEA020208BF1A
:101100004FF41063C0F81C2809781844490142586C
:1011100022F40042425080BD00EB4110C0F8082983
:1011200070470000D0F81028D0F8343800EB411098
:10113000CB40DB01DBB2D0F8080943EA02010840EA
:101140007047000080B591F800E0BEF1000F02D0BA
:101150004FF0000C10E08A68082A08D0102A09D045
:10116000202A0CBF4FF0010C4FF0000C04E04FF0B0
:10117000030C01E04FF0020C8B78D0F81C288BB1E7
:101180004FF4803303FA0EF31A43C0F81C280A7890
:10119000CAB1D1F808C000EB421202F5306E6FF30D
:1011A000DF2C12E0012303FA0EF31A43C0F81C28C7
:1011B0000A780AB3D1F808C000EB421202F5106EAB
:1011C0006FF3DF2C1AE000F5306EDEF8002040F2FD
:1011D000FF739A436244CEF800200A7800F530602D
:1011E000520191F803C083580CF0030C23F4402300
:1011F00043EA8C4383501FE000F5106EDEF80020B8
:1012000040F2FF739A436244CEF800200A7800F55A
:101210001060520191F803C083580CF0030C23F4C2
:10122000402343EA8C43835091F800C04FEA4C13AB
:10123000C2586CF39952C2500A785201835843F055
:101240008053835009784901425842F40042425089
:1012500080BD000000EB4110C0F8082B7047000073
:1012600000EB4111D1F8081BD0F814080840704772
:101270008A780B78002A4FEA431210D000F53060CC
:101280001358002B04D40244136823F080431360E6
:1012900009784901425842F400124250704700F563
:1012A00010601358B3F1FF3FEDDCF1E7016940F640
:1012B000415241F0100101610021C0F2030200BF60
:1012C0000369DB0658BF7047914201F10101F7D372
:1012D00070470000026961F38A120261016940F6F9
:1012E000415241F0200101610021C0F2030200BF20
:1012F00003699B0658BF7047914201F10101F7D382
:1013000070470000D0F81818D0F81C08084080B2C8
:1013100070470000D0F81818D0F81C080840000CDE
:10132000704700004161704741698069084070471B
:1013300040F640510022C0F2030100BF0369002BB8
:1013400003D48A4202F10102F8D9026942F0010293
:10135000026100220369DB0703D08A4202F1010225
:10136000F8D9816B41F480318163816B41F4802134
:101370008163816B41F4002181637047012A826996
:1013800014BF22EA01011143816170474FF0A04070
:101390007047000002290DD0012914D0002918BF80
:1013A0007047C16821F00051C160C16841F08041BF
:1013B000C1607047C16821F08041C160C16821F0FF
:1013C0000051C1607047C16821F08041C160C168AF
:1013D00041F00051C1607047002A08BF704770B5E6
:1013E0001446426805460878566A0B2809D00A2830
:1013F0000FD1FFF7F7FDFFF7BDFC0A2006F8400FFD
:101400000EE0FFF709FEFFF74FF90B2006F8400F3B
:1014100006E0FFF701FEFFF747F90C2006F8400F42
:101420002846812132462346BDE8704000F084BD45
:10143000816821F00101816070470000816841F0FE
:101440000101816070470000D0F8001E21F0010109
:10145000C0F8001E70470000002B08BF7047033320
:101460004FEA930C0122BCF1010FA1F104014FF4EA
:10147000805C88BF9A0800BF50F80C30013A41F8F0
:10148000043FF9D170470000D0F8002801F07F0137
:1014900022F4FE6242EA0111C0F800187047000011
:1014A00041627047B0B5436AC1B1D0F828E0B1F1EC
:1014B000010C03EB1E4E0AD000F58073494200BFB9
:1014C00053F8044F01314D1C0EEB144EF8D14EEA87
:1014D000024100EB8C00C0F80411B0BD43EA0241A8
:1014E0008162B0BDD0F8001E41F00101C0F8001EBD
:1014F00070470000D0F8080800F0010070470000B5
:101500002DE9F04F81B02C2201FB020CD0F800A095
:10151000644654F8145F2646274656F8102F57F8AD
:10152000143FD01AA84238BF054600910AEB411378
:10153000D3F81809EA1C80B2B0EB920F29D93868A9
:101540003268824225D9009903F5106B0CF120080E
:101550001FFA81F92568101AA84238BF0546D8F845
:101560000010ABB250464A4600F024F8D8F800000C
:1015700039682844C8F8000048193860DBF81800BA
:10158000E91C80B2B0EB910F03D93868326882420F
:10159000E0D815B101B0BDE8F08FDAF83418009A40
:1015A0000120904021EA0000CAF8340801B0BDE8EB
:1015B000F08F000010B5002B08BF10BD03F1030C25
:1015C0004FEA9C0E00F58054120301230439BEF14A
:1015D000010F88BF4FEA9C0351F8040F013B1051E3
:1015E000FAD110BD10B54BB201F07F012C24026876
:1015F00011FB040000F1BC04002B48BF00F10C04F7
:1016000010462146FFF74EFD0020607310BD00001C
:10161000B0B50D46044669B160684269002A08BF4A
:10162000B0BD94F88401032822D120462946BDE8A4
:10163000B040104794F88001022819D105F07F02CC
:101640002C2012FB004084465CF8303F5CF81C1CE8
:101650008B420ED95D1A026A8D4238BF29468BB281
:1016600020460021CCF80050BDE8B04000F064BC3A
:10167000B0BD50F82C3F8B4219D12C2312FB0342F2
:10168000526B8A4213D3B4F882118A420FD20021DE
:101690000160204600210022002300F04DFC20467E
:1016A000294600220023BDE8B04000F0E9BB606895
:1016B000C16829B194F88401032801D120468847E4
:1016C000206894F8BC200521D4F8C43084F8801137
:1016D00000EB42110022C4E93423C4F8D820D1F829
:1016E000102B63F31202C1F8102B4FF6FF73D1F8E1
:1016F000102BC0F2070303F160431A4002F50022E9
:10170000C1F8102B94F8BF2001F53061012A0AD1ED
:10171000D0F808080A68C0054FF0805058BF4FF055
:10172000005010430860086840F080600860086856
:1017300040F000400860B0BDF0B581B00546012022
:1017400085F88401002608460F4685F8866185E8FD
:101750000E00FFF779FC0020002100BF2A182C3072
:1017600011735173B02801F1010196735661C2E9FA
:101770000866F3D10020012100220023AE182C328C
:1017800086F8BC3086F8BD30B02A03F1010386F834
:10179000BE10C6F8C400C6E93400EFD13846FFF7E2
:1017A00047FE3846FFF7C4FD384600210026FFF704
:1017B000F1FD2868FFF748FED7F80008102120F453
:1017C000C050C7F80008D7F8000840F00300C7F879
:1017D00000083846FFF77EFD3846FFF767FD4FF0FB
:1017E000FF30C7F818084120C7F81C68C7F8106810
:1017F000C7F8146847F8206001304528FAD12868F6
:10180000B0F1A04F1CD14FF0A0408021FFF748FE5F
:101810004FF0A04000211822FFF744FE4FF0A040F7
:1018200001211422FFF73EFE4FF0A04002211422B6
:10183000FFF738FE4FF0A04003211422FFF732FEDD
:1018400007F510600021FF22002304E02033802BE5
:101850003161B2600ED0C458C618B4F1FF3FC15018
:10186000F4DC346844F080443460346844F000644C
:101870003460EBE707F530600021FF22002304E02D
:101880002033802B3161B2600ED0C458C618B4F139
:10189000FF3FC150F4DC346844F080443460346865
:1018A00044F000643460EBE7D7F8100840F480702F
:1018B000C7F810080020B8616FF08040786143F6E7
:1018C0001C00C8F23C00B8612868FFF7B5FB384639
:1018D000FFF7B4FD002001B0F0BD000010B50446D4
:1018E00061B160688269002A08BF10BD94F8840164
:1018F000032822D12046BDE81040104794F880010B
:1019000003281AD101F07F002C2210FB02429446DA
:101910005CF8E03F5CF81C0C83420FD9A3EB000E8F
:10192000D2F8D020864538BF704683B22046CCF826
:1019300000E0BDE8104000F0A3BA10BD6068016986
:1019400009B1204688474FF0040C204600210022B0
:10195000002384F880C1BDE8104000F0EDBA00001B
:1019600010B5044600F5B67004F5BA7100F018FE23
:10197000012084F8800194F86C01B4F8721100F031
:101980001F000228A4F8821109D001280CD00028D9
:1019900018BF10BD2046BDE8104000F075B82046C5
:1019A000BDE8104000F09CB92046BDE8104000F0B2
:1019B0000BBC000080B5D0F800E090F8BC304FF0D0
:1019C000030C00F1D007C0E9382280F880C10EEB8B
:1019D00043134FF0000CD0F8C42087E80610D3F86A
:1019E000101B62F31201C3F8101B4FF6FF72D3F8FD
:1019F000101BC0F2070202F16042114001F5002104
:101A0000C3F8101B90F8BF00012803F530600AD11D
:101A1000DEF808180268C9054FF0805158BF4FF032
:101A2000005111430160016841F08061016001686B
:101A300041F00041016080BD13460A464FF0020CA0
:101A40000021C0E90C3380F880C100F075BA0000B5
:101A50004FF0040C00210022002380F880C100F028
:101A60006BBA0000B0B50446006804F1BC01FFF792
:101A7000FFFB2068012504F10C0184F8C950FFF731
:101A8000F7FB6576B0BD0000B0B5044690F86C0178
:101A900004F5B67110F0600F05D0606882682046CA
:101AA00090470020B0BD94F86D01092834D8DFE8D4
:101AB00000F0051A333833486533768694F884018C
:101AC00000F0FE00022840F0878094F8870128B1DA
:101AD000D4F8900140F00200C4F8900104F5C871F8
:101AE00020460222E7E094F8840100F0FE0002287C
:101AF00040F07280B4F86E01012810D1002084F803
:101B00008701D4F89001626820F002009268C4F85E
:101B10009001204690470FE02046FFF7A3FF0020EA
:101B2000B0BDB4F86E01012856D160680122836807
:101B3000204684F8872198472046FFF789FF002038
:101B4000B0BDB4F87001002846D1B4F87201002885
:101B500042D194F8840103283ED0B4F86E0100F01D
:101B60007F052046294684F8865100F0FFFC0220BC
:101B7000002D08BF012084F88401DDE7B4F86E0170
:101B80004FF0FF3202EB1022062A25D8DFE802F0E0
:101B900004292D2424382400A068006823E0B4F828
:101BA0007201012818D194F8840103282DD002284D
:101BB00012D1002004F5C471C4F8880127E0B4F8FC
:101BC0007011B4F86E0140F22C55C2F20005287075
:101BD00011B9B4F87211E9B12046FFF743FF0020B4
:101BE000B0BDA0688068804754E0C0B2052836D8F0
:101BF000DFE800F0033D40434649A068006944E047
:101C00002046FFF72FFF002044E004F5C671204670
:101C1000012250E094F88411C0B203290CD00229AB
:101C2000DAD100283FF488AFC4F88C016068032142
:101C3000026884F884110FE0002847D0D4F88C1192
:101C400081427FF479AF60684168204688476068C8
:101C500029780268C4F88C11204690476CE7EE287A
:101C60002DD12046FFF7FEFE012100200FE0A068E5
:101C700040690AE0A068806907E0A068C06904E0E4
:101C8000A068406A01E0A068006A8047012100293D
:101C90003FF445AF00283FF442AF0388002B3FF4E8
:101CA0003EAFB4F87221002A3FF439AF4168934245
:101CB00038BF1A462046FFF7BFFE0020B0BD60685F
:101CC00082682046904700200021E0E762680221F8
:101CD00084F884115168C4F88C01204688472BE7AA
:101CE00070B5044690F86C0104F5B67510F0600FFD
:101CF00006D060682946826820469047002070BD63
:101D000094F86D11B4F8700103291CD0012923D077
:101D100081BB94F88411032936D002292FD110F009
:101D20007F0600F0800503D0C1B2204600F022FCFF
:101D30002C2016FB004000F10C01002D08BF00F123
:101D4000BC01002030E094F88411032934D002292A
:101D500015D1410608D110E094F8841103293BD035
:101D600002290CD1410608D0C1B2204600F002FC85
:101D7000002070BD2046FFF775FE002070BD204694
:101D8000FFF770FE002070BD00F07F012C2211FBD8
:101D9000024202F10C01000658BF02F1BC01487B6F
:101DA0000138B0FA80F0400941F8100F20460222B5
:101DB000FFF742FE002070BDB4F86E1131B910F08B
:101DC0007F0103D0C1B2204600F0D4FB60682946F1
:101DD0008268204690470EE0B4F86E110029CCD1FD
:101DE000410608D0C1B22046FFF7FCFB60682946D7
:101DF0008268204690472046FFF72AFE002070BDEB
:101E000010B504460068FFF775FB012818BF10BD28
:101E10002068BDE81040FFF765BB00004AB201F042
:101E20007F012C2311FB0303006803F1BC01002A8E
:101E300048BF03F10C01FFF751B9000080B54FFA1C
:101E400081FE84460068BEF1000F01F07F0E4FF066
:101E50002C011EFB01CC06D44FF0010E0CF1BC018D
:101E60008CF8BEE005E00CF10C014FF0000E8CF890
:101E70000EE08B60CA70BDE88040FFF763B90000D8
:101E8000B0B511F07F0E4FF02C011EFB01052C4662
:101E900044F8D43FD0F800C014F8181C44F8042CBF
:101EA0000CEB411101F530614FF00002626002D18C
:101EB000D5F8C4202260D5F8C430BEF1000F12D08E
:101EC000226882B11A44013AB2FBF3F40A4652F88E
:101ED000105F634363F312050023C1F6F87303EA4E
:101EE000C443156007E00A4652F8104F63F312042A
:101EF00014604FF4002314686FF3DC442343136031
:101F00002C221EFB020090F8BF0001280AD1DCF849
:101F100008080A68C0054FF0805058BF4FF00050C5
:101F200010430860086840F080600860086840F06E
:101F300000400860B0BD00002DE9F041844601F08A
:101F40007F062C2116FB01C7BE4600681EF80C1F39
:101F500000EB4111F046744601F5106548F8142F66
:101F600044F8183F4FF00002CEF81C20D3B17A6934
:101F700016B329699F186FF312011944013F2961B3
:101F8000B7FBF2F2296962F3DC4129612C2116FBCF
:101F900001C1C97B012921D12969012262F35E7146
:101FA00029611BE02A69012363F3DC422A612A6963
:101FB0006FF312022A6111E09A4238BF2260226850
:101FC0002B6962F312032B612A69012363F3DC425C
:101FD0002A6122682C2316FB03C3DA622C2116FB2C
:101FE00001C212F80F1F01290AD1D0F808182B6876
:101FF000C9054FF0805158BF4FF000511943296077
:10200000296841F080612960296841F00041296018
:102010001178012908D1D8F800109EF800202388F3
:10202000BDE8F041FFF7C6BA2168002908BFBDE846
:10203000F0819EF800100122D0F8343802FA01F144
:102040001943C0F83418BDE8F081000080B500687D
:10205000B0F1A04F18BF80BD4FF0A0408021FFF726
:102060001FFA4FF0A04000211822FFF71BFA4FF093
:10207000A04001211422FFF715FA4FF0A0400221E1
:102080001422FFF70FFA4FF0A04003211422BDE8FD
:102090008040FFF707BA000001F07F012C2211FBFE
:1020A0000200D0F8D80070472DE9F04381B00568F0
:1020B00080462846FFF726F9002850D0064600271C
:1020C0004FF0010904E000BF760807F1010746D090
:1020D000F007F9D028463946FFF724F80446C00730
:1020E0000AD120071AD4E0061FD4600624D4A00722
:1020F00029D42006E8D52DE0D5F8340809FA07F1EF
:102100008843C5F83408284639460122FFF704F809
:10211000F9B24046FFF77CFA2007E4D52846394655
:102120000822FEF7F9FFE006DFD5284639461022DF
:10213000FEF7F2FF6006DAD5284639464022FEF760
:10214000EBFFA007D5D5284639460222FEF7E4FF6B
:102150002006B9D540463946FFF7D2F9B4E701B0B9
:10216000BDE8F083F0B581B0069E074610461C46D8
:102170000D46FFF70BF93860002087F8A30187F8B8
:10218000A5014020C0F24010C7F89C01042087F848
:10219000985187F8A151012D87F89B0104BF0220B7
:1021A00087F8A0010120396887F8A501886B2246CD
:1021B00040F4001088633968381D33460095FFF7F6
:1021C000BBFA002001B0F0BDB0B5044690F8840120
:1021D000013802280ED8606804F5B671826820467E
:1021E0009047B4F872110546002908BF002D07D0AA
:1021F0002846B0BD2046FFF735FC00252846B0BD77
:102200002046FFF725FC2846B0BD00002DE9F0412F
:10221000054655F8048B06464046FFF785F8D8F882
:102220001410C90717D10746800716D478031AD4AB
:1022300038031DD4F80420D4380728D4B80431D486
:10224000F80653D4F80256D4B80261D4B7F1FF3F70
:1022500000F385806AE0BDE8F08140460221FFF787
:1022600061F87803E4D52846FFF71EFF3803E1D56F
:10227000284600F095F8F804DED5284600F0DEF890
:1022800040464FF48051FFF74DF83807D6D5B06877
:10229000C16909B12846884740460821FFF742F83E
:1022A000B804CDD574682046FEF7D6FEE068052157
:1022B00061F38D20E0602846002100224023FFF7D3
:1022C000BDFD2846802100224023FFF7B7FDB068FE
:1022D0004168012086F8880109B1284688474046B0
:1022E0004FF40051FFF71EF8F806ABD5284600F072
:1022F00001F9F802A8D5B068026A12B12846052192
:10230000904740464FF48011FFF70CF8B8029DD576
:10231000B068026A12B128460621904740464FF441
:102320000011FEF7FFFFB7F1FF3F18DC7068D0F82F
:10233000041821F00101C0F804187068FFF784F850
:10234000B068026A96F8890186F8880112B12846B9
:102350000321904740464FF00041FEF7E3FF380568
:1023600058BFBDE8F0812868D0F80808C0070FD032
:1023700096F8880186F88901042086F888012846A5
:10238000FFF73EFDB068026A12B12846022190476D
:1023900040464FF40061BDE8F041FEF7C3BF0000C6
:1023A0002DE9F04381B0056880462846FEF7B2FF6C
:1023B00000283FD006464FF00009002704E000BF88
:1023C000760807F1010735D0F007F9D028463946DD
:1023D000FEF746FF0446C00708D0284639460122CA
:1023E000FEF738FFF9B24046FFF778FA200719D513
:1023F000284639460822FEF72DFFF9B24046FFF77E
:10240000AFFA98F8860168B1D8F8001000F07F00A4
:10241000D1F8002822F4FE6242EA0010C1F8000858
:1024200088F88691E006CBD5284639461022FEF77B
:1024300011FFC5E701B0BDE8F0830000B0B5056845
:102440000446D5F8040820F00100C5F80408204629
:10245000FFF7FCFD28461021FEF73CFF6FF07F00E0
:10246000FF2100BF2A182030C2F88819C2F8881B43
:10247000F8D14FF0FF30C5F818084FF00110C5F83B
:102480001C08D5F81408002140F00100C5F8140814
:10249000D5F8140840F00200C5F81408D5F814085F
:1024A00040F00800C5F81408D5F8100840F0010005
:1024B000C5F81008D5F8100840F00200C5F810085B
:1024C000D5F8100840F00800C5F810082846FEF7B7
:1024D000DBFF2846FEF7CEFD6068026A0120002A75
:1024E00084F8840108BFB0BD20460121BDE8B0409A
:1024F000104700002DE9F0410468054620461021F0
:102500000022FEF73BFF216AC1F34340C1F30A16E4
:10251000062801F00F0712D002281FD1F6B12C2097
:1025200017FB0058D8F8D01020463A463346FEF73D
:1025300093FFD8F8D0003044C8F8D00006E005F585
:10254000BA7120463A463346FEF786FF2C2017FB29
:102550000050D0F8D8103144C0F8D81020461021CF
:102560000122BDE8F041FEF709BF00000068FEF758
:102570008BBF000010B54BB201F07F012C24026824
:1025800011FB040000F1BC04002B48BF00F10C0457
:1025900010462146FEF76CFE0120607310BD00005E
:1025A0000A7802704A7842704A8842808A8882801B
:1025B000C988C180704759524B4200504C30312D70
:1025C000314B00504C303120496E74657266616346
:1025D0006500504C303120436F6E66696700000023
:1025E000002600080000002008010000AC010008DF
:1025F0000827000808010020300A0000C801000870
:10260000290000008C000020750500082105000845
:10261000D1050008690500083905000871050008A2
:10262000A5050008A50600086D0500086801002042
:10263000A5090008B10A0008990900085D0A000808
:10264000010A00080D0A0008610A0008B50A00081E
:10265000B10900084909000812000000DC00002050
:1026600009211001000122220000000004030904D6
:102670001A0300000000000000000000000000003D
:102680000000000000000000000000000902290016
:10269000010100E0320904000002030000000921EA
:1026A00010010001222200070581034000010705F7
:1026B000010340000100000006FF000901A101091B
:1026C00006150026FF007508950A910209071500F6
:1026D00026FF007508950A8182C0000012010002E1
:1026E0000000004096AA00BB0002010203010000A6
:1026F000040000006C0000201A00000070000020A0
:0827000000127A000000000045
:04000005080001717D
:00000001FF
